:0F011C0042000200004200040000420000000008
:10008F00900006EBF0A3EAF0A3E9F0900003E00480
:10009F00F07006900002E004F0900002E07004A3FC
:0F00AF00E0643C700963A0FF900002F0A3F02210
:0F013800900009EBF0A3EAF0A3E9F06380FF2247
:1000BE0090000CEBF0A3EAF0A3E9F0900005E00449
:1000CE00F07006900004E004F0900004E07004A3C9
:0F00DE00E06464700963A0FF900004F0A3F022B7
:1000ED0090000FEBF0A3EAF0A3E9F0900001E0041B
:1000FD00F07006900000E004F0900000E07004A3A2
:0F010D00E06428700963B0FF900000F0A3F022B7
:0E015600900012EBF0A3EAF0A3E9F0B29022C1
:0E016400900015EBF0A3EAF0A3E9F0B29122AF
:0E017200900018EBF0A3EAF0A3E9F0B292229D
:0E01800090001BEBF0A3EAF0A3E9F0B293228B
:0E018E0090001EEBF0A3EAF0A3E9F0B2942279
:0E019C00900021EBF0A3EAF0A3E9F0B2952267
:0201DC0080FEA3
:0C012B0041002932410028324100270029
:0F014700900024EBF0A3EAF0A3E9F0E4FEFF221E
:0B01B70090002AEEF0A3EFF07F002282
:0301D3007F002288
:0301D6007F002285
:0B01C20090002CEEF0A3EFF07F002275
:0D01AA007580FF7590FF75A0FF75B0FF22F6
:0301D9000201AA76
:0601CD001201D90201DC61
:03000000020003F8
:0C000300787FE4F6D8FD75810702004A02
:10000F000201CDE493A3F8E493A34003F68001F239
:10001F0008DFF48029E493A3F85407240CC8C333F2
:10002F00C4540F4420C8834004F456800146F6DFC1
:10003F00E4800B010204081020408090011CE47E34
:10004F00019360BCA3FF543F30E509541FFEE493B6
:10005F00A360010ECF54C025E060A840B8E493A37D
:10006F00FAE493A3F8E493A3C8C582C8CAC583CAA8
:10007F00F0A3C8C582C8CAC583CADFE9DEE780BE60
:0101370000C7
:00000001FF
