:02112B0080FE44
:10102700D3EF9400EE94004015E4FCFD0DBD0001E4
:0E1037000CED646E4C70F5EF1F70E51E80E24C
:011045002288
:1008FF009000687411F07580F0AF80EF64F07003B2
:10090F000209B27F147E00121027AF80EF640F70C0
:10091F00030209B27580F0AF80EF2490602324C0EA
:10092F00601724E0600B24F0701FE4900068F080E3
:10093F001E9000687401F080169000687402F080B9
:10094F000E9000687403F080069000687411F075C3
:10095F00800F7F147E00121027AF80EF24F96024E0
:10096F0024FC601724FE600A147022900068E0F0E7
:10097F008021900068E02404F08018900068E02443
:10098F0008F0800F900068E0240CF080069000685B
:10099F007411F0AF80EF640F60097F0A7E001210B0
:0809AF002780F0900068E0FFD2
:0109B700221D
:100C4900D2A1C2A09000611201C50000000020A13C
:100C5900FDE4FBEBC39418748094805042D2A090B9
:100C69000061E0FCA3E0FDA3E0FEA3E0FF78011230
:100C790001A69000611201B9C2A030A11F900061C4
:100C8900E0FCA3E0FDA3E0FEA3E02401FFE43EFEB7
:100C9900E43DFDE43CFC9000611201B90B80B4D243
:100CA900A0900061E0FCA3E0FDA3E0FEA3E0FFED5E
:100CB9006480FDEC9000611201B9C2A0900061E06E
:0A0CC900FCA3E0FDA3E0FEA3E0FFA2
:010CD30022FE
:10108D007590FFC2A0D2A1D2A2AF90C2A2EF20E76D
:01109D00F65C
:01109E00222F
:10109F00AE0712108DC2A0C2A1AF068F90D2A2C20E
:0210AF00A2227B
:10100400E0FBA3E475F0011200DEA9F0FA12002E51
:01101400FFDC
:10101500AE0712108DD2A0C2A1AF068F90D2A2C288
:02102500A22205
:1010B100ED7004AC078004EF2440FCEC4480FF0297
:0210C100109F7E
:081100001210B1AF030210153B
:10000300900065EBF0A3EAF0A3E9F01210B19000C1
:1000130065E0FBA3E0FAA3E0F912002E600890006C
:070023006512100680E822BF
:0B0F9800900033EBF0A3EAF0A3E9F0B7
:100FA300E4FDFF1210B1EDC39410748094805009D6
:100FB3009000331210040D80ED7D01E4FF1210B197
:100FC3001DEDC39410748094805009900036121064
:040FD300040D80ED9C
:010FD70022F7
:081108001210B17F0F02109FCD
:051116007F0C02109F98
:101079007F3812109F7F0C12109F7F0612109F7FDE
:041089000102109FB1
:0C10460043000300000043000000000015
:0B0A710090002BEBF0A3EAF0A3E9F0EB
:100A7C00900003E0F9A3E0FAA3E0900000C9020B98
:100A8C001E900000E0FBA3E0FAA3E04A4B700302C7
:100A9C000B28900000A3A3E0F9900001120047641A
:100AAC0002705A90000474FFF5F012012C900004AF
:100ABC001200F445F07046900000E0FBA3E0FAA3AE
:100ACC00E0F99000021200F4FF900004E5F08FF0C2
:100ADC001201799000091201F6C003C002C0019006
:100AEC000000E0FBA3E0FAA3E0F99000061201F687
:100AFC0089828A83D001D002D00312028390000035
:100B0C00E0FBA3E0FAA3E0F990000C1201F69000D0
:0C0B1C0000EBF0A3EAF0A3E9F0020A8D60
:010B280022AA
:100FD800E4900006F0A3F0A374FFF0A3740AF0A352
:100FE8007471F0A3E4F0A3F0A3F0F9A3C9F0A3F09F
:0C0FF800A3E9F07B017A007906020529CC
:0910EE007B017A007906020E2D47
:0910F7007B017A007906020E97D4
:0B040000900039EBF0A3EAF0A3E9F054
:10040B00900003E0F9A3E0FAA3E090003CC9F0A34D
:10041B00EAF0A3E9F0900003E0FBA3A3E04A4B70E2
:10042B0057900039E0FBA3E0FAA3E0F9E412007463
:10043B00900039E0FBA3E0FAA3E0F990000174010E
:10044B001200867B007A007900C003C002C00190C5
:10045B000039E0FBA3E0FAA3E0F990000C120226AE
:10046B00900039E0F9A3E0FAA3E0900003C9F0A3F0
:10047B00EAF0A3E9F07F002290003CE0FBA3E0FA56
:10048B00A3E0F990000C1201F6E94A4B601E9000B4
:10049B003CE0FBA3E0FAA3E0F990000C1201F6900C
:1004AB00003CEBF0A3EAF0A3E9F080CC90003CE039
:1004BB00FBA3E0FAA3E0F912002E04FF900039E051
:1004CB00FBA3E0FAA3E0F9EF120074900039E0FB14
:1004DB00A3E0FAA3E0F990000174011200867B00FF
:1004EB007A007900C003C002C001900039E0FBA381
:1004FB00E0FAA3E0F990000C120226900039E0FB21
:10050B00A3E0FAA3E0F9C003C002C001A3E0FBA380
:0D051B00E0FAA3E0F990000C1202267F0028
:0105280022B0
:0B065200900011EBF0A3EAF0A3E9F028
:10065D00900003E0F9A3E0FAA3E0900014C9F0A321
:10066D00EAF0A3E9F0900003E0F9A3A3E0900017EE
:10067D00C9F0A3EAF0A3E9F0900003E0FBA3A3E027
:10068D004A4B70037FFF22900011E0FBA3E0FAA319
:10069D00E0F912002EFF900003E0FBA3E0FAA3E0C7
:1006AD00F912002EB5071490000C1201F6900003FC
:1006BD00EBF0A3EAF0A3E9F07F0022804E90001446
:1006CD00E0FBA3E0FAA3E04A4B606F900011E0FB62
:1006DD00A3E0FAA3E0F912002EFF900014E0FBA3B3
:1006ED00E0FAA3E0F912002EB5072090000C1201DC
:1006FD00F6C003C002C001900017E0FBA3E0FAA30F
:10070D00E0F990000C1202267F0022900014E0F90F
:10071D00A3E0FAA3E0A3C9F0A3EAF0A3E9F09000E7
:10072D0014E0FBA3A3E0F990000C1201F690001465
:0C073D00EBF0A3EAF0A3E9F080837FFF5B
:01074900228D
:0B0D590090003FEBF0A3EAF0A3E9F0EC
:100D6400900003E0F9A3E0FAA3E0900042C98043B5
:100D7400900042E0FBA3E0FAA3E04A4B603E9000FF
:100D84003FE0FBA3E0FAA3E0F912002EFF9000423B
:100D9400E0FBA3E0FAA3E0F912002EB5070B9000E4
:100DA4000174011200867F002290000C1201F6905B
:0E0DB4000042EBF0A3EAF0A3E9F080B47FFF69
:010DC200220E
:0B0DC300900045EBF0A3EAF0A3E9F07C
:100DCE00900003E0F9A3E0FAA3E0900048C9804345
:100DDE00900048E0FBA3E0FAA3E04A4B603E90008F
:100DEE0045E0FBA3E0FAA3E0F912002EFF900048C5
:100DFE00E0FBA3E0FAA3E0F912002EB5070B90007A
:100E0E000174021200867F002290000C1201F690EF
:0E0E1E000048EBF0A3EAF0A3E9F080B47FFFF8
:010E2C0022A3
:100B2900900023EBF0A3EAF0A3E9F0A3ECF0A3ED26
:010B3900F0CB
:100B3A00900003E0F9A3E0FAA3E0900028C98067D7
:100B4A00900028E0FBA3E0FAA3E04A4B6062900021
:100B5A0023E0FBA3E0FAA3E0F912002EFF9000289D
:100B6A00E0FBA3E0FAA3E0F912002EB507249000F7
:100B7A0026E0FEA3E0FF7C007D0A1200A890000296
:100B8A00EE8FF0120179900004EE8FF01201797F56
:100B9A000022900028E0FBA3E0FAA3E0F990000C01
:100BAA001201F6900028EBF0A3EAF0A3E9F0809096
:020BBA007FFFBB
:010BBC002216
:0C10520043004E00000043004B00000073
:0B0CD40090002BEBF0A3EAF0A3E9F086
:100CDF0090004EE0F9A3E0FAA3E090004BC9805ECC
:100CEF0090004BE0FBA3E0FAA3E04A4B6059900061
:100CFF004BA3A3E0F99000011200476402702A9001
:100D0F0000051201F6C003C002C00190004BE0FBCA
:100D1F00A3E0FAA3E0F99000021201F689828A8318
:100D2F00D001D002D00312028390004BE0FBA3E06E
:100D3F00FAA3E0F99000081201F690004BEBF0A334
:090D4F00EAF0A3E9F080997F00AD
:010D58002278
:1010610090004EE4F0A3F0A3F07BFF7A0C79D47DDD
:08107100107C277F010209B881
:01002A0022B3
:01112D00229F
:0B05290090002BEBF0A3EAF0A3E9F038
:1005340090004EE0F9A3E0FAA3E090002EC9F0A3E6
:10054400EAF0A3E9F090004EE0FBA3A3E04A4B706D
:100554005790002BE0FBA3E0FAA3E0F9E412007447
:1005640090002BE0FBA3E0FAA3E0F99000017401F2
:100574001200867B007A007900C003C002C001909B
:10058400002BE0FBA3E0FAA3E0F990000812022696
:1005940090002BE0F9A3E0FAA3E090004EC9F0A389
:1005A400EAF0A3E9F07F002290002EE0FBA3E0FA3A
:1005B400A3E0F99000081201F6E94A4B601E90008E
:1005C4002EE0FBA3E0FAA3E0F99000081201F690F4
:1005D400002EEBF0A3EAF0A3E9F080CC90002EE02B
:1005E400FBA3E0FAA3E0F912002E04FF90002BE035
:1005F400FBA3E0FAA3E0F9EF12007490002BE0FBF8
:10060400A3E0FAA3E0F990000174011200867B00D4
:100614007A007900C003C002C00190002BE0FBA364
:10062400E0FAA3E0F990000812022690002BE0FB08
:10063400A3E0FAA3E0F9C003C002C001A3E0FBA356
:0D064400E0FAA3E0F99000081202267F0002
:010651002286
:0B074A0090001AEBF0A3EAF0A3E9F026
:1007550090004EE0F9A3E0FAA3E090001DC9F0A3D4
:10076500EAF0A3E9F090004EE0F9A3A3E0900020A1
:10077500C9F0A3EAF0A3E9F090004EE0FBA3A3E0E3
:100785004A4B70037FFF2290001AE0FBA3E0FAA317
:10079500E0F912002EFF90004EE0FBA3E0FAA3E083
:1007A500F912002EB507149000081201F690004EBC
:1007B500EBF0A3EAF0A3E9F07F0022804E90001D44
:1007C500E0FBA3E0FAA3E04A4B606F90001AE0FB60
:1007D500A3E0FAA3E0F912002EFF90001DE0FBA3B1
:1007E500E0FAA3E0F912002EB507209000081201E7
:1007F500F6C003C002C001900020E0FBA3E0FAA30D
:10080500E0F99000081202267F002290001DE0F911
:10081500A3E0FAA3E0A3C9F0A3EAF0A3E9F09000EE
:100825001DE0FBA3A3E0F99000081201F690001D5E
:0C083500EBF0A3EAF0A3E9F080837FFF62
:010841002294
:0B0E2D0090002BEBF0A3EAF0A3E9F02B
:100E380090004EE0F9A3E0FAA3E090002EC98043A9
:100E480090002EE0FBA3E0FAA3E04A4B603E90003E
:100E58002BE0FBA3E0FAA3E0F912002EFF90002E8E
:100E6800E0FBA3E0FAA3E0F912002EB5070B90000F
:100E78000174021200867F00229000081201F69089
:0E0E8800002EEBF0A3EAF0A3E9F080B47FFFA8
:010E96002239
:0B0E9700900051EBF0A3EAF0A3E9F09B
:100EA20090004EE0F9A3E0FAA3E0900054C9804319
:100EB200900054E0FBA3E0FAA3E04A4B603E9000AE
:100EC20051E0FBA3E0FAA3E0F912002EFF900054D8
:100ED200E0FBA3E0FAA3E0F912002EB5070B9000A5
:100EE2000174011200867F00229000081201F69020
:0E0EF2000054EBF0A3EAF0A3E9F080B47FFF18
:010F000022CE
:02105E00C100CF
:0F10C300900030EBF0A3EAF0A3E9F0E4FEFF2287
:1009B80090002BECF0A3EDF0A3EBF0A3EAF0A3E991
:1009C800F0EF14600B046003020A7075C809800315
:1009D800E4F5C890002BE0FEA3E0FBE4C39BFFE432
:1009E8009EFE74019400FDE49400FCE4FB7A01F996
:1009F800F8120F5490005FEFF090002BE0FEA3E098
:100A0800FBE4C39BFFE49EFE74019400FDE49400A4
:100A1800FCE4FB7A01F9F8120F54900060EBF090B7
:100A2800002DE0FBA3E0FAA3E04A4B701090005CB5
:100A380074FFF0A37410F0A374C3F0801590002D18
:100A4800E0F9A3E0FAA3E090005CC9F0A3EAF0A300
:100A5800E9F090005FE0F5CBA3E0F5CA85CBCD8542
:090A6800CACCD2AFD2CAD2AD2231
:10084200900057ECF0A3EDF0A3EBF0A3EAF0A3E9DC
:10085200F0C2CAC2ADEF14600B0460030208FE7559
:10086200C8098003E4F5C8900057E0FEA3E0FBE46A
:10087200C39BFFE49EFE74019400FDE49400FCE43B
:10088200FB7A01F9F8120F5490005FEFF0900057D5
:10089200E0FEA3E0FBE4C39BFFE49EFE7401940030
:1008A200FDE49400FCE4FB7A01F9F8120F54900085
:1008B20060EBF0900059E0FBA3E0FAA3E04A4B7032
:1008C2001090005C74FFF0A37410F0A374C3F08066
:1008D20015900059E0F9A3E0FAA3E090005CC9F09A
:1008E200A3EAF0A3E9F090005FE0F5CBA3E0F5CA3C
:0D08F20085CBCD85CACCC2CAC2ADD2AF2223
:05111B00D2ADD2CA2292
:05112000C2CAC2AD22AD
:03112500C2CA2219
:03112800D2CA2206
:03002B00020F01C0
:100F0100C0E0C0F0C083C082C0D075D000C000C0B6
:100F110001C002C003C004C005C006C007C2CF7B28
:100F2100007A007900C00290005CA3E0FAA3E0F52A
:100F3100828A83D002120283D007D006D005D00462
:100F4100D003D002D001D000D0D0D082D083D0F055
:030F5100D0E032BB
:0D10E1007580FF7590FF75A0FF75B0FF22B0
:0F10D2001210E112106112002A120FD80210EE54
:061110001210D202112BA7
:03000000020BBD33
:0C0BBD00787FE4F6D8FD758120020C045E
:100BC900021110E493A3F8E493A34003F68001F221
:100BD90008DFF48029E493A3F85407240CC8C3332D
:100BE900C4540F4420C8834004F456800146F6DFFC
:100BF900E4800B0102040810204080901046E47E36
:100C0900019360BCA3FF543F30E509541FFEE493F0
:100C1900A360010ECF54C025E060A840B8E493A3B7
:100C2900FAE493A3F8E493A3C8C582C8CAC583CAE2
:100C3900F0A3C8C582C8CAC583CADFE9DEE780BE9A
:01106000008F
:10002E00BB010689828A83E0225002E722BBFE02D0
:09003E00E32289828A83E4932203
:10004700BB010CE58229F582E5833AF583E022506E
:1000570006E92582F8E622BBFE06E92582F8E222B8
:0D006700E58229F582E5833AF583E49322D2
:10007400BB010689828A83F0225002F722BBFE016B
:02008400F32265
:10008600F8BB010DE58229F582E5833AF583E8F0B0
:10009600225006E92582C8F622BBFE05E92582C85C
:0200A600F22244
:1000A800C2D5EC30E709B2D5E4C39DFDE49CFCEE73
:1000B80030E715B2D5E4C39FFFE49EFE120285C364
:1000C800E49DFDE49CFC800312028530D507C3E45F
:0600D8009FFFE49EFE22E2
:1000DE00A3F8E0C5F025F0F0E582158270021583D5
:0600EE00E0C838F0E82232
:1000F400BB0110E58229F582E5833AF583E0F5F04A
:10010400A3E0225009E92582F886F008E622BBFE26
:100114000AE92582F8E2F5F008E222E5832AF5836C
:08012400E993F5F0A3E9932231
:10012C00BB010DC58229C582C5833AC5830202DA9B
:10013C005011C58229F808E5F026F618F5F0E5828D
:10014C0036F622BBFE11C58229F808E225F0F5F03F
:10015C00F218E23582F222F8E58229F582E5832A4B
:0D016C00F58374019325F0F5F0E49338223B
:10017900F8BB0111E58229F582E5833AF583E8F0B8
:10018900E5F0A3F0225009E92582C8F608A6F02275
:0D019900BBFE09E92582C8F2E5F008F2225C
:100F5400C2D5E830E70FB2D5E4C39BFBE49AFAE4C8
:100F640099F9E498F8EC30E717B2D5120F8A120316
:100F74002CE4C39BFBE49AFAE499F9E498F880031F
:100F840012032C30D50DE4C39FFFE49EFEE49DFDC7
:040F9400E49CFC22BB
:1001A600E8600FEFC333FFEE33FEED33FDEC33FCB7
:0301B600D8F1225B
:0C01B900ECF0A3EDF0A3EEF0A3EFF022B9
:1001C500A8828583F0D083D0821201DC1201DC1273
:1001D50001DC1201DCE473E493A3C583C5F0C58398
:1001E500C8C582C8F0A3C583C5F0C583C8C582C884
:0101F50022E7
:1001F600BB010DE58229F582E5833AF5830203D03A
:100206005007E92582F80203BEBBFE07E92582F8FE
:100216000203E2E58229F582E5833AF5830203F4D7
:10022600BB0120E58229F582E5833AF583D0F0D03B
:10023600E0F8D0E0F9D0E0FAD0E0FBE8C0E0C0F0AA
:100246000203D95018E92582F8D083D082D0E0F98C
:10025600D0E0FAD0E0FBC082C0830203C7BBFE1821
:10026600E92582F8D083D082D0E0F9D0E0FAD0E058
:09027600FBC082C0830203EB22ED
:06027F008A838982E4730A
:10028500BC000BBE0029EF8DF084FFADF022E4CC5D
:10029500F875F008EF2FFFEE33FEEC33FCEE9DEC26
:1002A500984005FCEE9DFE0FD5F0E9E4CEFD22ED6C
:1002B500F8F5F0EE8420D21CFEADF075F008EF2FB6
:1002C500FFED33FD4007985006D5F0F222C398FDA7
:0502D5000FD5F0EA2244
:1002DA00C5F0F8A3E028F0C5F0F8E58215827002AF
:0602EA001583E038F0224C
:1002F00075F008758200EF2FFFEE33FECD33CDCCC5
:1003000033CCC58233C5829BED9AEC99E582984047
:100310000CF582EE9BFEED9AFDEC99FC0FD5F0D624
:10032000E4CEFBE4CDFAE4CCF9A88222B800C1B94E
:100330000059BA002DEC8BF084CFCECDFCE5F0CB8C
:10034000F97818EF2FFFEE33FEED33FDEC33FCEBC5
:1003500033FB10D703994004EB99FB0FD8E5E4F980
:10036000FA227818EF2FFFEE33FEED33FDEC33FC6D
:10037000C933C910D7059BE99A4007EC9BFCE99A61
:10038000F90FD8E0E4C9FAE4CCFB2275F010EF2FA6
:10039000FFEE33FEED33FDCC33CCC833C810D707A6
:1003A0009BEC9AE899400AED9BFDEC9AFCE899F8E1
:0E03B0000FD5F0DAE4CDFBE4CCFAE4C8F92274
:0903BE00E6FB08E6FA08E6F92264
:0903C700EBF608EAF608E9F6225B
:0903D000E0FBA3E0FAA3E0F9222E
:0903D900EBF0A3EAF0A3E9F02225
:0903E200E2FB08E2FA08E2F9224C
:0903EB00EBF208EAF208E9F22243
:0C03F400E493FB740193FA740293F92265
:00000001FF
