:0F12C400420026000042002800004200240000E3
:10120800900077EBF0A3EAF0A3E9F0900027E00460
:10121800F07006900026E004F0900026E07004A329
:0E122800E0643C700963A0FF900026F0A3F084
:011236002295
:0E00030090007AEBF0A3EAF0A3E9F06380FF2F
:0100110022CC
:1012370090007DEBF0A3EAF0A3E9F0900029E00429
:10124700F07006900028E004F0900028E07004A3F6
:0E125700E06464700963A0FF900028F0A3F02B
:011265002266
:10126600900080EBF0A3EAF0A3E9F0900025E004FB
:10127600F07006900024E004F0900024E07004A3CF
:0E128600E06428700963B0FF900024F0A3F02C
:011294002237
:0D133300900083EBF0A3EAF0A3E9F0B29084
:01134000228A
:0D134100900086EBF0A3EAF0A3E9F0B29172
:01134E00227C
:0D134F00900089EBF0A3EAF0A3E9F0B29260
:01135C00226E
:0D135D0090008CEBF0A3EAF0A3E9F0B2934E
:01136A002260
:0D136B0090008FEBF0A3EAF0A3E9F0B2943C
:011378002252
:0D137900900092EBF0A3EAF0A3E9F0B2952A
:011386002244
:1009F400E4900000F0A3F0A304F0A37404F0A37443
:100A040032F0E4A3F0F9A3C9F0A3F0A3E9F0E4A35E
:100A1400F0A3F0A304F0A37405F0A3745AF0E4A3C4
:100A2400F0F9A3C9F0A3F0A3E9F0E4A3F0A3F0A3C1
:100A340004F0A37406F0A37432F0E4A3F0F9A3C99C
:100A4400F0A3F0A3E9F0E4A3F0A3F0A304F0A374EB
:100A540007F0A3740AF0E4A3F0F9A3C9F0A3F0A388
:100A6400E9F07B017A00790012042A7B017A00798B
:100A74000912042A7B017A00791212042A7B017A72
:100A840000791B12042A7B017A007900120CEA7B9C
:100A9400017A00791B120CEA7B017A007909120CA5
:0C0AA400EA7B017A007912120CEA80FE55
:0C12D30043002D00000043002A00000032
:10086C0090004DEBF0A3EAF0A3E9F090002DE0F935
:10087C00A3E0FAA3E090002AC902092C90002AE018
:10088C00FBA3E0FAA3E04A4B700302093690002A5E
:10089C00A3A3E0F99000011200476402706D900070
:1008AC000504120074900004120047FF900005121A
:1008BC000047B5071E90002AE0FBA3E0FAA3E0F97D
:1008CC00900002120047FF900003120047FD121027
:1008DC0084803890002AE0FBA3E0FAA3E0F99000B2
:1008EC000512004764647023900002120047FF90C9
:1008FC000003120047FD12117790002AE0FBA3E0E1
:10090C00FAA3E0F9900005E41200B990002AE0FB8C
:10091C00A3E0FAA3E0F99000061200DB90002AEBAA
:0A092C00F0A3EAF0A3E9F002088846
:01093600229E
:10129500E4900030F0A3F0A374FFF0A37408F0A36A
:1012A500746CF0A3E4F0A3F0A3F0F9A3C9F0A3F0E4
:0F12B500A3E9F07B017A0079301205537F002204
:0C1394007B017A007930120DBE7F002230
:0C13A0007B017A007930120E287F0022B9
:0B042A0090004DEBF0A3EAF0A3E9F016
:1004350090002DE0F9A3E0FAA3E0900050C9F0A3E5
:10044500EAF0A3E9F090002DE0FBA3A3E04A4B708E
:100455005790004DE0FBA3E0FAA3E0F9E41200A7F2
:1004650090004DE0FBA3E0FAA3E0F99000017401D0
:100475001200B97B007A007900C003C002C0019068
:10048500004DE0FBA3E0FAA3E0F990000612010B92
:1004950090004DE0F9A3E0FAA3E090002DC9F0A388
:1004A500EAF0A3E9F07F0022900050E0FBA3E0FA18
:1004B500A3E0F99000061200DBE94A4B601E9000AC
:1004C50050E0FBA3E0FAA3E0F99000061200DB90F0
:1004D5000050EBF0A3EAF0A3E9F080CC900050E0E7
:1004E500FBA3E0FAA3E0F912002E04FF90004DE013
:1004F500FBA3E0FAA3E0F9EF1200A790004DE0FBA3
:10050500A3E0FAA3E0F990000174011200B97B00A1
:100515007A007900C003C002C00190004DE0FBA342
:10052500E0FAA3E0F990000612010B90004DE0FB04
:10053500A3E0FAA3E0F9C003C002C001A3E0FBA356
:0D054500E0FAA3E0F990000612010B7F0020
:010552002286
:0B067C0090003BEBF0A3EAF0A3E9F0D4
:1006870090002DE0F9A3E0FAA3E090003EC9F0A3A3
:10069700EAF0A3E9F090002DE0F9A3A3E090004170
:1006A700C9F0A3EAF0A3E9F090002DE0FBA3A3E0D3
:1006B7004A4B70037FFF2290003BE0FBA3E0FAA3C5
:1006C700E0F912002EFF90002DE0FBA3E0FAA3E073
:1006D700F912002EB507149000061200DB90002DCA
:1006E700EBF0A3EAF0A3E9F07F0022804E90003EF2
:1006F700E0FBA3E0FAA3E04A4B606F90003BE0FB0E
:10070700A3E0FAA3E0F912002EFF90003EE0FBA35E
:10071700E0FAA3E0F912002EB507209000061200B8
:10072700DBC003C002C001900041E0FBA3E0FAA3D5
:10073700E0F990000612010B7F002290003EE0F9DD
:10074700A3E0FAA3E0A3C9F0A3EAF0A3E9F09000BD
:100757003EE0FBA3A3E0F99000061200DB90003E09
:0C076700EBF0A3EAF0A3E9F080837F0030
:010773002263
:0B0CEA0090004DEBF0A3EAF0A3E9F04E
:100CF50090002DE0F9A3E0FAA3E0900050C98043ED
:100D0500900050E0FBA3E0FAA3E04A4B603E900060
:100D15004DE0FBA3E0FAA3E0F912002EFF9000508E
:100D2500E0FBA3E0FAA3E0F912002EB5070B900053
:100D35000174021200B97F00229000061200DB90B8
:0E0D45000050EBF0A3EAF0A3E9F080B47F00C9
:010D5300227D
:0B0D5400900055EBF0A3EAF0A3E9F0DB
:100D5F0090002DE0F9A3E0FAA3E0900058C980437A
:100D6F00900058E0FBA3E0FAA3E04A4B603E9000EE
:100D7F0055E0FBA3E0FAA3E0F912002EFF90005814
:100D8F00E0FBA3E0FAA3E0F912002EB5070B9000E9
:100D9F000174011200B97F00229000061200DB904F
:0E0DAF000058EBF0A3EAF0A3E9F080B47F0057
:010DBD002213
:0B0C7A0090005BEBF0A3EAF0A3E9F0B0
:100C850090002DE0F9A3E0FAA3E090005EC9804949
:100C950090005EE0FBA3E0FAA3E04A4B60449000BD
:100CA5005BE0FBA3E0FAA3E0F912002EFF90005EE3
:100CB500E0FBA3E0FAA3E0F912002EB507119000BE
:100CC50004ED1200B9900005E41200B97F002290EE
:100CD50000061200DB90005EEBF0A3EAF0A3E9F05A
:040CE50080AE7F005E
:010CE90022E8
:0C12DF00430064000000430061000000B8
:100BF50090004DEBF0A3EAF0A3E9F0900064E0F972
:100C0500A3E0FAA3E0900061C9805E900061E0FB7B
:100C1500A3E0FAA3E04A4B6059900061A3A3E0F971
:100C25009000011200476402702A9000051200DB53
:100C3500C003C002C001900061E0FBA3E0FAA3E09D
:100C4500F99000021200DB89828A83D001D002D09C
:100C550003120168900061E0FBA3E0FAA3E0F990BC
:100C650000081200DB900061EBF0A3EAF0A3E9F0C5
:040C750080997F00E3
:010C79002258
:1012EE00900064E4F0A3F0A3F07BFF7A0B79F57D18
:0812FE00107C277F01020AB0F9
:0100120022CB
:0113C8002202
:0B05530090004DEBF0A3EAF0A3E9F0EC
:10055E00900064E0F9A3E0FAA3E0900050C9F0A384
:10056E00EAF0A3E9F0900064E0FBA3A3E04A4B702D
:10057E005790004DE0FBA3E0FAA3E0F9E41200A7C8
:10058E0090004DE0FBA3E0FAA3E0F99000017401A6
:10059E001200B97B007A007900C003C002C001903E
:1005AE00004DE0FBA3E0FAA3E0F990000812010B66
:1005BE0090004DE0F9A3E0FAA3E0900064C9F0A327
:1005CE00EAF0A3E9F07F0022900050E0FBA3E0FAEE
:1005DE00A3E0F99000081200DBE94A4B601E900080
:1005EE0050E0FBA3E0FAA3E0F99000081200DB90C4
:1005FE000050EBF0A3EAF0A3E9F080CC900050E0BD
:10060E00FBA3E0FAA3E0F912002E04FF90004DE0E8
:10061E00FBA3E0FAA3E0F9EF1200A790004DE0FB78
:10062E00A3E0FAA3E0F990000174011200B97B0077
:10063E007A007900C003C002C00190004DE0FBA318
:10064E00E0FAA3E0F990000812010B90004DE0FBD8
:10065E00A3E0FAA3E0F9C003C002C001A3E0FBA32C
:0D066E00E0FAA3E0F990000812010B7F00F4
:01067B00225C
:0B077400900044EBF0A3EAF0A3E9F0D2
:10077F00900064E0F9A3E0FAA3E0900047C9F0A36A
:10078F00EAF0A3E9F0900064E0F9A3A3E090004A37
:10079F00C9F0A3EAF0A3E9F0900064E0FBA3A3E0A3
:1007AF004A4B70037FFF22900044E0FBA3E0FAA3C3
:1007BF00E0F912002EFF900064E0FBA3E0FAA3E043
:1007CF00F912002EB507149000081200DB90006498
:1007DF00EBF0A3EAF0A3E9F07F0022804E900047F0
:1007EF00E0FBA3E0FAA3E04A4B606F900044E0FB0C
:1007FF00A3E0FAA3E0F912002EFF900047E0FBA35D
:10080F00E0FAA3E0F912002EB507209000081200BD
:10081F00DBC003C002C00190004AE0FBA3E0FAA3D3
:10082F00E0F990000812010B7F0022900047E0F9D9
:10083F00A3E0FAA3E0A3C9F0A3EAF0A3E9F09000C4
:10084F0047E0FBA3A3E0F99000081200DB900047FC
:0C085F00EBF0A3EAF0A3E9F080837FFF38
:01086B00226A
:0B0DBE0090004DEBF0A3EAF0A3E9F079
:100DC900900064E0F9A3E0FAA3E0900050C98043E1
:100DD900900050E0FBA3E0FAA3E04A4B603E90008C
:100DE9004DE0FBA3E0FAA3E0F912002EFF900050BA
:100DF900E0FBA3E0FAA3E0F912002EB5070B90007F
:100E09000174021200B97F00229000081200DB90E1
:0E0E19000050EBF0A3EAF0A3E9F080B47FFFF5
:010E270022A8
:0B0E2800900067EBF0A3EAF0A3E9F0F4
:100E3300900064E0F9A3E0FAA3E090006AC980435C
:100E430090006AE0FBA3E0FAA3E04A4B603E900007
:100E530067E0FBA3E0FAA3E0F912002EFF90006A1B
:100E6300E0FBA3E0FAA3E0F912002EB5070B900014
:100E73000174011200B97F00229000081200DB9078
:0E0E8300006AEBF0A3EAF0A3E9F080B47FFF71
:010E9100223E
:10027A00EF14607B1470030203611470030203C756
:10028A0024036003020427EB14601914603214601B
:10029A004B24036003020427A805E4088002C33341
:1002AA00D8FC8043A805E4088002C333D8FCF59340
:1002BA00A8057401088002C333D8FCF59402042708
:1002CA00A8057401088002C333D8FCF593A805E495
:1002DA00088002C333D8FCF594020427A8057401E8
:1002EA00088002C333D8FCFFF5938F94020427EBEE
:1002FA0014601914603214604B240360030204274B
:10030A00A805E4088002C333D8FC8043A805E408A2
:10031A008002C333D8FCF591A8057401088002C392
:10032A0033D8FCF592020427A8057401088002C399
:10033A0033D8FCF591A805E4088002C333D8FCF54C
:10034A0092020427A8057401088002C333D8FCFF6F
:10035A00F5918F92020427EB14601914603214602D
:10036A004A24036003020427A805E4088002C33371
:10037A00D8FC8042A805E4088002C333D8FCF5956E
:10038A00A8057401088002C333D8FCF59602042735
:10039A00A8057401088002C333D8FCF595A805E4C2
:1003AA00088002C333D8FCF5968072A80574010848
:1003BA008002C333D8FCFFF5958F968060EB1460FA
:1003CA001614602E14604624037052A805E40880AF
:1003DA0002C333D8FC8041A805E4088002C333D89D
:1003EA00FCF5B1A8057401088002C333D8FCF5B244
:1003FA00802BA8057401088002C333D8FCF5B1A884
:10040A0005E4088002C333D8FCF5B28010A805744D
:10041A0001088002C333D8FCFFF5B18FB27F0022F6
:10117700EF1460191460251460312403703CA8052E
:101187007401088002C333D8FC4280802DA80574FF
:1011970001088002C333D8FC4290801EA805740161
:1011A700088002C333D8FC42A0800FAF05A807749C
:0D11B70001088002C333D8FC42B07F002243
:10108400EF14601A14602714603424037040A80518
:101094007401088002C333D8FCF452808030A80560
:1010A4007401088002C333D8FCF452908020A80550
:1010B4007401088002C333D8FCF452A08010AF0539
:1010C400A8077401088002C333D8FCF452B07F002F
:0110D40022F9
:100E92007EFFEF14601B1460291460372403704432
:100EA200AE80A8057401088002C333D8FC5EFE80C0
:100EB20033AE90A8057401088002C333D8FC5EFEED
:100EC2008022AEA0A8057401088002C333D8FC5E5C
:100ED200FE8011AEB0AF05A8077401088002C333CB
:060EE200D8FC5EFEAF0625
:010EE80022E7
:0212EB00C10040
:0E001600900052EBF0A3EAF0A3E9F0E4FEFF45
:0100240022B9
:100AB00090004DECF0A3EDF0A3EBF0A3EAF0A3E976
:100AC000F0EF14600B046003020B6875C809800323
:100AD000E4F5C890004DE0FEA3E0FBE4C39BFFE417
:100AE0009EFE74019400FDE49400FCE4FB7A01F99D
:100AF000F81211C4900075EFF090004DE0FEA3E0F5
:100B0000FBE4C39BFFE49EFE74019400FDE49400AB
:100B1000FCE4FB7A01F9F81211C4900076EBF09036
:100B2000004FE0FBA3E0FAA3E04A4B701090007284
:100B300074FFF0A37400F0A37416F0801590004FBA
:100B4000E0F9A3E0FAA3E0900072C9F0A3EAF0A3F1
:100B5000E9F0900075E0F5CBA3E0F5CA85CBCD8533
:090B6000CACCD2AFD2CAD2AD2238
:1009370090006DECF0A3EDF0A3EBF0A3EAF0A3E9D0
:10094700F0C2CAC2ADEF14600B0460030209F3756D
:10095700C8098003E4F5C890006DE0FEA3E0FBE45E
:10096700C39BFFE49EFE74019400FDE49400FCE445
:10097700FB7A01F9F81211C4900075EFF090006D41
:10098700E0FEA3E0FBE4C39BFFE49EFE740194003A
:10099700FDE49400FCE4FB7A01F9F81211C490001D
:1009A70076EBF090006FE0FBA3E0FAA3E04A4B7010
:1009B7001090007274FFF0A37400F0A37416F08017
:1009C7001590006FE0F9A3E0FAA3E0900072C9F078
:1009D700A3EAF0A3E9F0900075E0F5CBA3E0F5CA30
:0D09E70085CBCD85CACCC2CAC2ADD2AF222D
:0513AC00D2ADD2CA22FF
:0513B100C2CAC2AD221A
:0313B600C2CA2286
:0313B900D2CA2273
:03002B00020EE9D9
:100EE900C0E0C0F0C083C082C0D075D000C000C0CF
:100EF90001C002C003C004C005C006C007C2CF7B41
:100F0900007A007900C002900072A3E0FAA3E0F52C
:100F1900828A83D002120168D007D006D005D00496
:100F2900D003D002D001D000D0D0D082D083D0F06D
:030F3900D0E032D3
:0E130600900095EBF0A3EAF0A3E9F0E4FEFFFF
:0113140022B6
:100F3C00900098EBF0A3EAF0A3E9F0C2A8EF1460DC
:100F4C000704703DC2888002D288900098E0FBA311
:100F5C00E0FAA3E04A4B701090009E74FFF0A3746B
:100F6C0013F0A37406F08015900098E0F9A3E0FA52
:100F7C00A3E090009EC9F0A3EAF0A3E9F0D2A8D2B6
:020F8C00AF2292
:100F8E0090009BEBF0A3EAF0A3E9F0C2A8EF146087
:100F9E000704703DC2888002D28890009BE0FBA3BC
:100FAE00E0FAA3E04A4B701090009E74FFF0A37419
:100FBE0013F0A37406F0801590009BE0F9A3E0FAFD
:100FCE00A3E090009EC9F0A3EAF0A3E9F0C2A8D274
:020FDE00AF2240
:0313BC00D2A82292
:0313BF00C2A8229F
:0113C9002201
:0113CA002200
:030013000210D503
:1010D500C0E0C0F0C083C082C0D075D000C000C0E1
:1010E50001C002C003C004C005C006C0077B007A6A
:1010F500007900C00290009EA3E0FAA3E0F5828A81
:1011050083D002120168D007D006D005D004D003E1
:10111500D002D001D000D0D0D082D083D0F0D0E0A2
:011125003297
:0E1315009000A1EBF0A3EAF0A3E9F0E4FEFFE4
:0113230022A7
:100FE0009000A4EBF0A3EAF0A3E9F0C2A8EF14602C
:100FF0000704703DC2888002D2889000A4E0FBA361
:10100000E0FAA3E04A4B70109000AA74FFF0A374BA
:1010100013F0A37415F080159000A4E0F9A3E0FA92
:10102000A3E09000AAC9F0A3EAF0A3E9F0D2A8D205
:02103000AF22ED
:101032009000A7EBF0A3EAF0A3E9F0C2A8EF1460D6
:101042000704703DC2888002D2889000A7E0FBA30B
:10105200E0FAA3E04A4B70109000AA74FFF0A37468
:1010620013F0A37415F080159000A7E0F9A3E0FA3D
:10107200A3E09000AAC9F0A3EAF0A3E9F0C2A8D2C3
:02108200AF229B
:0313C200D2A8228C
:0313C500C2A82299
:0113CB0022FF
:0113CC0022FE
:03001300021126B1
:10112600C0E0C0F0C083C082C0D075D000C000C08F
:1011360001C002C003C004C005C006C0077B007A18
:10114600007900C0029000AAA3E0FAA3E0F5828A23
:1011560083D002120168D007D006D005D004D00390
:10116600D002D001D000D0D0D082D083D0F0D0E051
:011176003246
:0D1387007580FF7590FF75A0FF75B0FF2207
:0F1324001213871212EE12001212129502139476
:060025001213240209F48D
:03000000020B6987
:0C0B6900787FE4F6D8FD758120020BB007
:100B7500020025E493A3F8E493A34003F68001F271
:100B850008DFF48029E493A3F85407240CC8C33381
:100B9500C4540F4420C8834004F456800146F6DF50
:100BA500E4800B01020408102040809012C4E47E0A
:100BB500019360BCA3FF543F30E509541FFEE49345
:100BC500A360010ECF54C025E060A840B8E493A30C
:100BD500FAE493A3F8E493A3C8C582C8CAC583CA37
:100BE500F0A3C8C582C8CAC583CADFE9DEE780BEEF
:0112ED000000
:10002E00BB010689828A83E0225002E722BBFE02D0
:09003E00E32289828A83E4932203
:10004700BB010CE58229F582E5833AF583E022506E
:1000570006E92582F8E622BBFE06E92582F8E222B8
:0D006700E58229F582E5833AF583E49322D2
:10007400BB010FF8E58229F582E5833AF583E02890
:10008400F0225009C58229F8E58226F622BBFE0932
:10009400C58229F8E22582F222F8EA2583F583E96C
:0300A4009328227C
:1000A700BB010689828A83F0225002F722BBFE0138
:0200B700F32232
:1000B900F8BB010DE58229F582E5833AF583E8F07D
:1000C900225006E92582C8F622BBFE05E92582C829
:0200D900F22211
:1011C400C2D5E830E70FB2D5E4C39BFBE49AFAE456
:1011D40099F9E498F8EC30E717B2D51211FA120134
:1011E400A6E4C39BFBE49AFAE499F9E498F8800333
:1011F4001201A630D50DE4C39FFFE49EFEE49DFDDD
:04120400E49CFC2248
:1000DB00BB010DE58229F582E5833AF58302024ADD
:1000EB005007E92582F8020238BBFE07E92582F8A2
:1000FB0002025CE58229F582E5833AF58302026E02
:10010B00BB0120E58229F582E5833AF583D0F0D057
:10011B00E0F8D0E0F9D0E0FAD0E0FBE8C0E0C0F0C6
:10012B000202535018E92582F8D083D082D0E0F92F
:10013B00D0E0FAD0E0FBC082C083020241BBFE18C4
:10014B00E92582F8D083D082D0E0F9D0E0FAD0E074
:09015B00FBC082C0830202652290
:060164008A838982E47326
:10016A0075F008758200EF2FFFEE33FECD33CDCC4C
:10017A0033CCC58233C5829BED9AEC99E5829840CF
:10018A000CF582EE9BFEED9AFDEC99FC0FD5F0D6AC
:10019A00E4CEFBE4CDFAE4CCF9A88222B800C1B9D6
:1001AA000059BA002DEC8BF084CFCECDFCE5F0CB14
:1001BA00F97818EF2FFFEE33FEED33FDEC33FCEB4D
:1001CA0033FB10D703994004EB99FB0FD8E5E4F908
:1001DA00FA227818EF2FFFEE33FEED33FDEC33FCF5
:1001EA00C933C910D7059BE99A4007EC9BFCE99AE9
:1001FA00F90FD8E0E4C9FAE4CCFB2275F010EF2F2E
:10020A00FFEE33FEED33FDCC33CCC833C810D7072D
:10021A009BEC9AE899400AED9BFDEC9AFCE899F868
:0E022A000FD5F0DAE4CDFBE4CCFAE4C8F922FB
:09023800E6FB08E6FA08E6F922EB
:09024100EBF608EAF608E9F622E2
:09024A00E0FBA3E0FAA3E0F922B5
:09025300EBF0A3EAF0A3E9F022AC
:09025C00E2FB08E2FA08E2F922D3
:09026500EBF208EAF208E9F222CA
:0C026E00E493FB740193FA740293F922EC
:00000001FF
