:0F06710042000A000042000C0000420008000096
:10056E00900019EBF0A3EAF0A3E9F090000BE00481
:10057E00F0700690000AE004F090000AE07004A308
:0F058E00E0643C700963A0FF90000AF0A3F02224
:0F06810090001CEBF0A3EAF0A3E9F06380FF22E6
:10059D0090001FEBF0A3EAF0A3E9F090000DE0044A
:1005AD00F0700690000CE004F090000CE07004A3D5
:0F05BD00E06464700963A0FF90000CF0A3F022CB
:1005CC00900022EBF0A3EAF0A3E9F0900009E0041C
:1005DC00F07006900008E004F0900008E07004A3AE
:0F05EC00E06428700963B0FF900008F0A3F022CC
:0E06AE00900025EBF0A3EAF0A3E9F0B2902251
:0E06BC00900028EBF0A3EAF0A3E9F0B291223F
:0E06CA0090002BEBF0A3EAF0A3E9F0B292222D
:0E06D80090002EEBF0A3EAF0A3E9F0B293221B
:0E06E600900031EBF0A3EAF0A3E9F0B2942209
:0E06F400900034EBF0A3EAF0A3E9F0B29522F7
:10064D007F647E001205FB1200037FD07E07120629
:03065D002880FEF4
:10066000900000EBF0A3EAF0A3E9F0B2A7E4FEFFEC
:010670002267
:1005FB00E4FC7D0A12000EAC06AD07AB05AA04E4C1
:10060B00F9F87F507EC3FDFC12052AAC06AD077BC3
:0C061B00FF7A0679607F011202547F0014
:0106270022B0
:0600030012071B7F002222
:06070F0012069F7F00228C
:10062800E4FC7D0A12000EAC06AD07AB05AA04E493
:10063800F9F87F507EC3FDFC12052AAC06AD0712FF
:04064800036D7F00BF
:01064C00228B
:0F069000900005EBF0A3EAF0A3E9F0E4FEFF22EF
:10025400900000ECF0A3EDF0A3EBF0A3EAF0A3E927
:10026400F0900011EFF014602E14607C14700302FF
:1002740003022403600302036C900000E0FEA3E089
:10028400FFC3E49FFD74209EFCFEED7803CEC313F0
:10029400CE13D8F9020320438901900000E0FEA3A5
:1002A400E0FBE4C39BFFE49EFE74019400FDE49430
:1002B40000FCE4FB7A01F9F812052A900012EFF031
:1002C400900000E0FEA3E0FBE4C39BFFE49EFE7409
:1002D400019400FDE49400FCE4FB7A01F9F81205B2
:1002E4002A900013EBF0803D438902900000A3E0C4
:1002F400FFC3E49FFF900012EFF0A3F0802743892F
:1003040003900000E0FEA3E0FFC3E49FFD74209E81
:10031400FCFEED7803CEC313CE13D8F9900012F08F
:10032400ED5407A3F0900002E0FBA3E0FAA3E04A37
:100334004B701090000E74FFF0A37406F0A3749039
:10034400F08015900002E0F9A3E0FAA3E090000E1B
:10035400C9F0A3EAF0A3E9F0900012E0F58CA3E061
:09036400F58AD2A9D2AFD28C2295
:10013700900014ECF0A3EDF0A3EBF0A3EAF0A3E931
:10014700F0900011EFF0C28CC2A914602E14607CED
:100157001470030201E924036003020253900014A0
:10016700E0FEA3E0FFC3E49FFD74209EFCFEED7854
:1001770003CEC313CE13D8F90202074389019000B7
:1001870014E0FEA3E0FBE4C39BFFE49EFE7401942E
:1001970000FDE49400FCE4FB7A01F9F812052A90CB
:1001A7000012EFF0900014E0FEA3E0FBE4C39BFF16
:1001B700E49EFE74019400FDE49400FCE4FB7A01E4
:1001C700F9F812052A900013EBF0803D438902905D
:1001D7000014A3E0FFC3E49FFF900012EFF0A3F029
:1001E7008027438903900014E0FEA3E0FFC3E49F48
:1001F700FD74209EFCFEED7803CEC313CE13D8F911
:10020700900012F0ED5407A3F0900016E0FBA3E076
:10021700FAA3E04A4B701090000E74FFF0A3740627
:10022700F0A37490F08015900016E0F9A3E0FAA30C
:10023700E090000EC9F0A3EAF0A3E9F0900012E005
:0D024700F58CA3E0F58AC2A9D2AFC28C22CB
:10036D00900000EEF0A3EFF0C28C900011E014604D
:10037D002E14607C14700302041324036003020422
:10038D003C900000E0FEA3E0FFC3E49FFD74209EBF
:10039D00FCFEED7803CEC313CE13D8F9020431431E
:1003AD008901900000E0FEA3E0FBE4C39BFFE49E07
:1003BD00FE74019400FDE49400FCE4FB7A01F9F86D
:1003CD0012052A900012EFF0900000E0FEA3E0FB72
:1003DD00E4C39BFFE49EFE74019400FDE49400FCD5
:1003ED00E4FB7A01F9F812052A900013EBF0803D39
:1003FD00438902900000A3E0FFC3E49FFF90001229
:10040D00EFF0A3F08027438903900000E0FEA3E006
:10041D00FFC3E49FFD74209EFCFEED7803CEC31355
:10042D00CE13D8F9900012F0ED5407A3F0D28C2220
:05071B00D2A9D28C22DE
:0F069F00C28CC2A9900012E0F58CA3E0F58A226C
:03000B000204C923
:1004C900C0E0C0F0C083C082C0D075D000C000C0F9
:1004D90001C002C003C004C005C006C007900011D6
:1004E900E064026008A3E0F58CA3E0F58A7B007A5A
:1004F900007900C00290000EA3E0FAA3E0F5828A19
:1005090083D002120067D007D006D005D004D003EB
:10051900D002D001D000D0D0D082D083D0F0D0E0AA
:01052900329F
:0D0702007580FF7590FF75A0FF75B0FF2298
:03072000020702CB
:0607150012072002064D50
:0300000002043DBA
:0C043D00787FE4F6D8FD75810702048486
:10044900020715E493A3F8E493A34003F68001F2AD
:1004590008DFF48029E493A3F85407240CC8C333B4
:10046900C4540F4420C8834004F456800146F6DF83
:10047900E4800B0102040810204080900671E47E9C
:10048900019360BCA3FF543F30E509541FFEE49378
:10049900A360010ECF54C025E060A840B8E493A33F
:1004A900FAE493A3F8E493A3C8C582C8CAC583CA6A
:1004B900F0A3C8C582C8CAC583CADFE9DEE780BE22
:010680000079
:10000E00BC000BBE0029EF8DF084FFADF022E4CCD6
:10001E00F875F008EF2FFFEE33FEEC33FCEE9DEC9F
:10002E00984005FCEE9DFE0FD5F0E9E4CEFD22EDE5
:10003E00F8F5F0EE8420D21CFEADF075F008EF2F2F
:10004E00FFED33FD4007985006D5F0F222C398FD20
:05005E000FD5F0EA22BD
:10052A00C2D5E830E70FB2D5E4C39BFBE49AFAE4FC
:10053A0099F9E498F8EC30E717B2D5120560120081
:10054A00A5E4C39BFBE49AFAE499F9E498F88003DA
:10055A001200A530D50DE4C39FFFE49EFEE49DFD85
:04056A00E49CFC22EF
:060063008A838982E47328
:1000690075F008758200EF2FFFEE33FECD33CDCC4E
:1000790033CCC58233C5829BED9AEC99E5829840D1
:100089000CF582EE9BFEED9AFDEC99FC0FD5F0D6AE
:10009900E4CEFBE4CDFAE4CCF9A88222B800C1B9D8
:1000A9000059BA002DEC8BF084CFCECDFCE5F0CB16
:1000B900F97818EF2FFFEE33FEED33FDEC33FCEB4F
:1000C90033FB10D703994004EB99FB0FD8E5E4F90A
:1000D900FA227818EF2FFFEE33FEED33FDEC33FCF7
:1000E900C933C910D7059BE99A4007EC9BFCE99AEB
:1000F900F90FD8E0E4C9FAE4CCFB2275F010EF2F30
:10010900FFEE33FEED33FDCC33CCC833C810D7072F
:100119009BEC9AE899400AED9BFDEC9AFCE899F86A
:0E0129000FD5F0DAE4CDFBE4CCFAE4C8F922FD
:00000001FF
